:020000040800F2
:10000000005000207D210008DD1E0008E91E0008C8
:10001000EF1E0008F51E0008FB1E0008000000008F
:10002000000000000000000000000000011F0008A8
:100030000D1F000800000000191F000855170008D8
:10004000CD210008CD210008CD210008CD210008D8
:10005000CD210008CD210008CD210008691C000831
:10006000CD210008CD210008CD210008CD210008B8
:10007000CD210008CD210008CD210008CD210008A8
:10008000CD210008CD210008CD210008CD21000898
:10009000CD210008CD210008CD210008CD21000888
:1000A000CD210008CD210008CD210008CD21000878
:1000B000CD210008CD210008CD210008CD21000868
:1000C000CD210008CD210008CD210008CD21000858
:1000D000CD210008CD210008CD210008CD21000848
:1000E000CD210008CD21000800000000CD2100082E
:1000F000CD210008CD210008CD210008CD21000828
:10010000CD210008CD210008CD210008CD21000817
:10011000CD210008CD210008CD210008CD21000807
:10012000CD210008CD210008CD210008CD210008F7
:1001300010B5054C237833B9044B13B10448AFF321
:1001400000800123237010BD8C00002000000000FF
:100150003430000808B5034B1BB103490348AFF323
:10016000008008BD0000000090000020343000082E
:1001700081F0004102E000BF83F0004330B54FEA58
:1001800041044FEA430594EA050F08BF90EA020FC5
:100190001FBF54EA000C55EA020C7FEA645C7FEA58
:1001A000655C00F0E2804FEA5454D4EB5555B8BF7B
:1001B0006D420CDD2C4480EA020281EA030382EAEC
:1001C000000083EA010180EA020281EA0303362D7E
:1001D00088BF30BD11F0004F4FEA01314FF4801C51
:1001E0004CEA113102D0404261EB410113F0004F63
:1001F0004FEA03334CEA133302D0524263EB43031A
:1002000094EA050F00F0A780A4F10104D5F1200EB7
:100210000DDB02FA0EFC22FA05F2801841F1000112
:1002200003FA0EF2801843FA05F359410EE0A5F1E6
:1002300020050EF1200E012A03FA0EFC28BF4CF017
:10024000020C43FA05F3C01851EBE37101F00045CD
:1002500007D54FF0000EDCF1000C7EEB00006EEBDA
:100260000101B1F5801F1BD3B1F5001F0CD3490864
:100270005FEA30004FEA3C0C04F101044FEA4452BB
:1002800012F5800F80F09A80BCF1004F08BF5FEA42
:10029000500C50F1000041EB045141EA050130BD22
:1002A0005FEA4C0C404141EB0101013C28BFB1F534
:1002B000801FE9D291F0000F04BF01460020B1FA7F
:1002C00081F308BF2033A3F10B03B3F120020CDA52
:1002D0000C3208DD02F1140CC2F10C0201FA0CF030
:1002E00021FA02F10CE002F11402D8BFC2F1200C95
:1002F00001FA02F120FA0CFCDCBF41EA0C0190404B
:10030000E41AA2BF01EB0451294330BD6FEA040493
:100310001F3C1CDA0C340EDC04F11404C4F120027E
:1003200020FA04F001FA02F340EA030021FA04F390
:1003300045EA030130BDC4F10C04C4F1200220FAE7
:1003400002F001FA04F340EA0300294630BD21FA25
:1003500004F0294630BD94F0000F83F4801306BFEB
:1003600081F480110134013D4EE77FEA645C18BFDF
:100370007FEA655C29D094EA050F08BF90EA020F76
:1003800005D054EA000C04BF1946104630BD91EA6E
:10039000030F1EBF0021002030BD5FEA545C05D171
:1003A0004000494128BF41F0004130BD14F58004B0
:1003B0003CBF01F5801130BD01F0004545F0FE4124
:1003C00041F470014FF0000030BD7FEA645C1ABF59
:1003D000194610467FEA655C1CBF0B46024650EA90
:1003E000013406BF52EA033591EA030F41F40021BC
:1003F00030BD00BF90F0000F04BF0021704730B542
:100400004FF4806404F132044FF000054FF0000116
:1004100050E700BF90F0000F04BF0021704730B5D7
:100420004FF4806404F1320410F0004548BF4042AC
:100430004FF000013EE700BF42004FEAE2014FEA01
:1004400031014FEA02701FBF12F07F4393F07F4FDC
:1004500081F06051704732F07F4208BF704793F0DF
:100460007F4F04BF41F40021704730B54FF46074F2
:1004700001F0004521F000411CE700BF50EA0102F5
:1004800008BF704730B54FF000050AE050EA01029E
:1004900008BF704730B511F0004502D5404261EB0E
:1004A00041014FF4806404F132045FEA915C3FF44F
:1004B000D8AE4FF003025FEADC0C18BF03325FEAEC
:1004C000DC0C18BF033202EBDC02C2F1200300FA9D
:1004D00003FC20FA02F001FA03FE40EA0E0021FAC2
:1004E00002F11444BDE600BF70B54FF0FF0C4CF4B0
:1004F000E06C1CEA11541DBF1CEA135594EA0C0F62
:1005000095EA0C0F00F0DEF82C4481EA030621EA9C
:100510004C5123EA4C5350EA013518BF52EA0335D7
:1005200041F4801143F4801338D0A0FB02CE4FF089
:100530000005E1FB02E506F00042E0FB03E54FF0B9
:100540000006E1FB03569CF0000F18BF4EF0010EB1
:10055000A4F1FF04B6F5007F64F5407404D25FEAAD
:100560004E0E6D4146EB060642EAC62141EA555160
:100570004FEAC52040EA5E504FEACE2EB4F1FD0CA2
:1005800088BFBCF5E06F1ED8BEF1004F08BF5FEA20
:10059000500E50F1000041EB045170BD06F00046D2
:1005A00046EA010140EA020081EA0301B4EB5C047F
:1005B000C2BFD4EB0C0541EA045170BD41F4801177
:1005C0004FF0000E013C00F3AB8014F1360FDEBF9C
:1005D000002001F0004170BDC4F10004203C35DA78
:1005E0000C341BDC04F11404C4F1200500FA05F3FB
:1005F00020FA04F001FA05F240EA020001F000429C
:1006000021F0004110EBD37021FA04F642EB060111
:100610005EEA430E08BF20EAD37070BDC4F10C043B
:10062000C4F1200500FA04F320FA05F001FA04F2FF
:1006300040EA020001F0004110EBD37041F10001EB
:100640005EEA430E08BF20EAD37070BDC4F12005F6
:1006500000FA05F24EEA020E20FA04F301FA05F25E
:1006600043EA020321FA04F001F0004121FA04F206
:1006700020EA020000EBD3705EEA430E08BF20EAD6
:10068000D37070BD94F0000F0FD101F00046400010
:1006900041EB010111F4801F08BF013CF7D041EA92
:1006A000060195F0000F18BF704703F00046520096
:1006B00043EB030313F4801F08BF013DF7D043EA67
:1006C0000603704794EA0C0F0CEA135518BF95EA1D
:1006D0000C0F0CD050EA410618BF52EA4306D1D1A4
:1006E00081EA030101F000414FF0000070BD50EAC3
:1006F000410606BF1046194652EA430619D094EA4D
:100700000C0F02D150EA013613D195EA0C0F05D136
:1007100052EA03361CBF104619460AD181EA03018A
:1007200001F0004141F0FE4141F470014FF0000042
:1007300070BD41F0FE4141F4780170BD70B54FF0DD
:10074000FF0C4CF4E06C1CEA11541DBF1CEA13555D
:1007500094EA0C0F95EA0C0F00F0A7F8A4EB05043F
:1007600081EA030E52EA03354FEA013100F0888036
:100770004FEA03334FF0805545EA131343EA1263FF
:100780004FEA022245EA111545EA10654FEA0026B4
:100790000EF000419D4208BF964244F1FD0404F56D
:1007A000407402D25B084FEA3202B61A65EB0305C9
:1007B0005B084FEA32024FF480104FF4002CB6EB86
:1007C000020E75EB030E22BFB61A754640EA0C0006
:1007D0005B084FEA3202B6EB020E75EB030E22BF46
:1007E000B61A754640EA5C005B084FEA3202B6EB87
:1007F000020E75EB030E22BFB61A754640EA9C0046
:100800005B084FEA3202B6EB020E75EB030E22BF15
:10081000B61A754640EADC0055EA060E18D04FEAD3
:10082000051545EA16754FEA06164FEAC30343EA73
:1008300052734FEAC2025FEA1C1CC0D111F4801F40
:100840000BD141EA00014FF000004FF0004CB6E739
:1008500011F4801F04BF01430020B4F1FD0C88BFD8
:10086000BCF5E06F3FF6AFAEB5EB030C04BFB6EBE3
:10087000020C5FEA500C50F1000041EB045170BDD6
:100880000EF0004E4EEA113114EB5C04C2BFD4EB03
:100890000C0541EA045170BD41F480114FF0000E87
:1008A000013C90E645EA060E8DE60CEA135594EA03
:1008B0000C0F08BF95EA0C0F3FF43BAF94EA0C0F06
:1008C0000AD150EA01347FF434AF95EA0C0F7FF47B
:1008D00025AF104619462CE795EA0C0F06D152EACF
:1008E00003353FF4FDAE1046194622E750EA4106B3
:1008F00018BF52EA43067FF4C5AE50EA41047FF4C4
:100900000DAF52EA43057FF4EBAE12E74FF0FF3C28
:1009100006E000BF4FF0010C02E000BF4FF0010CF9
:100920004DF804CD4FEA410C7FEA6C5C4FEA430C72
:1009300018BF7FEA6C5C1BD001B050EA410C0CBFC1
:1009400052EA430C91EA030F02BF90EA020F002023
:10095000704710F1000F91EA030F58BF994208BF8A
:1009600090422CBFD8176FEAE37040F00100704747
:100970004FEA410C7FEA6C5C02D150EA013C07D19E
:100980004FEA430C7FEA6C5CD6D152EA033CD3D0E9
:100990005DF8040B704700BF8446104662468C46E3
:1009A0001946634600E000BF01B5FFF7B7FF002816
:1009B00048BF10F1000F01BD4DF808EDFFF7F4FF3F
:1009C0000CBF012000205DF808FB00BF4DF808EDCA
:1009D000FFF7EAFF34BF012000205DF808FB00BFED
:1009E0004DF808EDFFF7E0FF94BF012000205DF80F
:1009F00008FB00BF4DF808EDFFF7CEFF94BF0120C4
:100A000000205DF808FB00BF4DF808EDFFF7C4FFBC
:100A100034BF012000205DF808FB00BF4FEA410C05
:100A20007FEA6C5C02D150EA013C0AD14FEA430CE8
:100A30007FEA6C5C02D152EA033C02D14FF0000025
:100A400070474FF0010070474FEA4102B2F1E043B6
:100A500024BFB3F5001CDCF1FE5C0DD901F0004CA5
:100A60004FEAC0024CEA5070B2F1004F40EB8300F5
:100A700008BF20F00100704711F0804F21D113F121
:100A80003872BCBF01F00040704741F480114FEA5A
:100A90005252C2F11802C2F1200C10FA0CF320FAE3
:100AA00002F018BF40F001004FEAC1234FEAD32300
:100AB00003FA0CFC40EA0C0023FA02F34FEA43036A
:100AC000CCE77FEA625307D150EA01331EBF4FF0F3
:100AD000FE4040F44000704701F0004040F0FE400E
:100AE00040F40000704700BF4FF0FF3C06E000BF3D
:100AF0004FF0010C02E000BF4FF0010C4DF804CDA7
:100B00004FEA40024FEA41037FEA226C18BF7FEAB6
:100B1000236C11D001B052EA530C18BF90EA010FB8
:100B200058BFB2EB030088BFC81738BF6FEAE17047
:100B300018BF40F0010070477FEA226C02D15FEAE3
:100B4000402C05D17FEA236CE4D15FEA412CE1D04F
:100B50005DF8040B704700BF844608466146FFE716
:100B60000FB5FFF7C9FF002848BF10F1000F0FBDF8
:100B70004DF808EDFFF7F4FF0CBF012000205DF8F1
:100B800008FB00BF4DF808EDFFF7EAFF34BF012076
:100B900000205DF808FB00BF4DF808EDFFF7E0FF0F
:100BA00094BF012000205DF808FB00BF4DF808ED60
:100BB000FFF7D2FF94BF012000205DF808FB00BFC3
:100BC0004DF808EDFFF7C8FF34BF012000205DF8A5
:100BD00008FB00BF80B487B000AF786000237B6162
:100BE00000233B610F23FB607B68DB78002B3AD04E
:100BF000274BDB68DB431B0A03F007037B617B6940
:100C0000C3F104033B61FA687B6922FA03F3FB60DA
:100C10007B685B781A463B6902FA03F37B617B6869
:100C20009B781A46FB6813407A6913437B617B69A2
:100C30001B017B61174A7B681B787969C9B2134431
:100C40000A4683F800237B681B7803F01F031149D1
:100C50007A6812785209D2B21046012202FA03F3DE
:100C600041F820300FE07B681B7803F01F0309492F
:100C70007A6812785209D2B2104601229A4000F1E5
:100C8000200341F8232000BF1C37BD4680BC7047BD
:100C900000ED00E000E100E080B485B000AF7860D6
:100CA0000023FB60344BFB607B689B79002B4FD0AB
:100CB000314B1A687B681B68DB432F4913400B607C
:100CC0002D4B5A687B681B68DB432B4913404B60F4
:100CD0007B681B791A46FB681344FB60FB68196844
:100CE0007B681A68FB680A431A60234B9A687B6822
:100CF0001B68DB43204913408B601F4BDA687B681D
:100D00001B68DB431C491340CB607B685B79102B6D
:100D10000ED1194B9A687B681B68174913438B6087
:100D2000154BDA687B681B6813491343CB601DE0E1
:100D3000114BFB607B685B791A46FB681344FB60D0
:100D4000FB6819687B681A68FB680A431A600DE043
:100D50007B681B791A46FB681344FB60FB681968C3
:100D60007B681B68DA43FB680A401A6000BF1437CF
:100D7000BD4680BC704700BF0004014080B485B010
:100D800000AF78600023FB73084B5A697B681340FF
:100D9000002B02D00123FB7301E00023FB73FB7BDC
:100DA00018461437BD4680BC704700BF00040140A0
:100DB00080B483B000AF7860034A7B68536100BFA2
:100DC0000C37BD4680BC70470004014080B489B038
:100DD00000AF786039600023FB6100233B61002392
:100DE000BB610023FB6000237B610023BB603B6889
:100DF000DB7803F00F03FB613B68DB7803F0100343
:100E0000002B05D03B689B781A46FB691343FB61B6
:100E10003B681B88DBB2002B44D07B681B687B617E
:100E20000023BB6138E00122BB6902FA03F3FB60D7
:100E30003B681B881A46FB6813403B613A69FB68B4
:100E40009A4226D1BB699B00FB600F22FB6802FA25
:100E500003F3BB60BB68DB437A6913407B61FA69CB
:100E6000FB6802FA03F37A6913437B613B68DB7822
:100E7000282B05D10122BB699A407B685A6108E0A2
:100E80003B68DB78482B04D10122BB699A407B6820
:100E90001A61BB690133BB61BB69072BC3D97B688E
:100EA0007A691A603B681B88FF2B46D97B685B68B0
:100EB0007B610023BB613AE0BB690833012202FA7F
:100EC00003F3FB603B681B881A46FB6813403B61D9
:100ED0003A69FB689A4227D1BB699B00FB600F22ED
:100EE000FB6802FA03F3BB60BB68DB437A6913401B
:100EF0007B61FA69FB6802FA03F37A6913437B6149
:100F00003B68DB78282B05D1BB69083301229A4066
:100F10007B685A613B68DB78482B05D1BB69083395
:100F200001229A407B681A61BB690133BB61BB69CE
:100F3000072BC1D97B687A695A6000BF2437BD4648
:100F400080BC704780B483B000AF78600B467B8074
:100F50007A887B681A6100BF0C37BD4680BC704739
:100F600080B483B000AF78600B467B807A887B6862
:100F70005A6100BF0C37BD4680BC704780B485B055
:100F800000AF03460A46FB711346BB710023FB60AA
:100F9000BB7903F003039B000F2202FA03F3FB600B
:100FA000154ABB799B08DBB2023352F82320FB6859
:100FB000DB431148B9798908C9B21A408B1C40F843
:100FC00023200D4ABB799B08DBB2023352F8232061
:100FD000F979BB7903F003039B0001FA03F3064898
:100FE000B9798908C9B21A438B1C40F8232000BF85
:100FF0001437BD4680BC70470000014080B58AB000
:1010000000AF786039600023FB8400237B840423D5
:10101000BB84574BFB617B689B88FB84FB8C23F074
:101020003F03FB8407F10803184600F0A1F93B6970
:10103000FB61FB694F4AA2FB03239B0C7B84FA8C68
:101040007B8C1343FB847B68FA8C9A807B681B88BB
:101050009BB223F001039AB27B681A800023FB84C1
:101060003B681B68444A934215D83B681B685B0089
:10107000FA69B2FBF3F3BB84BB8C032B01D80423C6
:10108000BB84FA8CBB8C1343FB847B8C01339AB2F8
:101090007B681A8440E03B68DB884BF6FF72934222
:1010A00009D13B681A6813465B001344FA69B2FB26
:1010B000F3F3BB840EE03B681A6813469B001344AD
:1010C0009A001344FA69B2FBF3F3BB84BB8C43F47C
:1010D0008043BB84BB8CC3F30B03002B03D1BB8CBD
:1010E00043F00103BB84BA8CFB8C13439BB26FEAC1
:1010F00043436FEA5343FB847B8C4FF4967202FBAD
:1011000003F31E4A82FB03129211DB17D31A9BB220
:1011100001339AB27B681A847B68FA8C9A837B6865
:101120001B889BB243F001039AB27B681A807B68EC
:101130001B88FB84FB8C23F4816323F00203FB8474
:101140003B689A883B685B8913439AB2FB8C1343D4
:10115000FB847B68FA8C1A803B689A893B681B8900
:1011600013439AB27B681A8100BF2837BD4680BD01
:1011700000127A0083DE1B43A0860100D34D62106B
:1011800080B483B000AF78600B46FB70FB78002B17
:1011900008D07B681B889BB243F001039AB27B683E
:1011A0001A8007E07B681B889BB223F001039AB288
:1011B0007B681A8000BF0C37BD4680BC704780B486
:1011C00083B000AF78600B46FB70FB78002B08D033
:1011D0007B681B889BB243F480739AB27B681A8049
:1011E00007E07B681B889BB223F480739AB27B680C
:1011F0001A8000BF0C37BD4680BC704780B483B0F6
:1012000000AF78600B46FB70FB78002B08D07B6842
:101210001B889BB243F400739AB27B681A8007E084
:101220007B681B889BB223F400739AB27B681A8098
:1012300000BF0C37BD4680BC704780B483B000AFA0
:1012400078600B46FB70FB789AB27B681A8200BF0D
:101250000C37BD4680BC704780B483B000AF786067
:101260007B681B8A9BB2DBB218460C37BD4680BC3C
:10127000704780B483B000AF78600B46FB701346B4
:10128000BB70BB78002B04D0FB7843F00103FB70EC
:1012900003E0FB7823F00103FB70FB789AB27B68D4
:1012A0001A8200BF0C37BD4680BC704780B487B03F
:1012B00000AF7860396000233B610023FB600023AE
:1012C000BB600023FB757B689B8A9BB2FB607B68DD
:1012D0001B8B9BB2BB60BB681B04BB60FA68BB681E
:1012E000134323F07F433B613A693B6813403A68FC
:1012F0009A4202D10123FB7501E00023FB75FB7DBF
:1013000018461C37BD4680BC704780B487B000AF1C
:10131000786039600023FB7500233B610023FB608C
:101320007B68FB603B681B0F3B613B6823F07F439E
:101330003B603B69002B03D0FB681433FB6005E086
:101340003B681B0C3B60FB681833FB60FB681A684A
:101350003B681340002B02D00123FB7501E0002302
:10136000FB75FB7D18461C37BD4680BC70470000EE
:1013700080B487B000AF786000237B6100233B61BD
:101380000023FB600023BB604F4B5B6803F00C0342
:101390007B617B69082B11D07B69082B3AD87B696C
:1013A000002B03D07B69042B04D033E07B68474AD1
:1013B0001A6033E07B68454A1A602FE0424B5B6855
:1013C00003F470133B61404B5B6803F48033FB60B4
:1013D0003B699B0C02333B61FB68002B06D13B69E8
:1013E0003B4A03FB02F27B681A6017E0364B5B68EE
:1013F00003F40033002B06D03B69354A03FB02F2AD
:101400007B681A600AE03B69304A03FB02F27B68A2
:101410001A6003E07B682D4A1A6000BF2A4B5B68A4
:1014200003F0F0037B617B691B097B61294A7B69BF
:1014300013441B78DBB2BB607B681A68BB68DA4078
:101440007B685A60204B5B6803F4E0637B617B69D7
:101450001B0A7B611F4A7B6913441B78DBB2BB60AC
:101460007B685A68BB68DA407B689A60164B5B6899
:1014700003F460537B617B69DB0A7B61154A7B69FE
:1014800013441B78DBB2BB607B685A68BB68DA40E8
:101490007B68DA600C4B5B6803F440437B617B69DB
:1014A0009B0B7B610C4A7B6913441B78DBB2BB60EE
:1014B0007B68DA68BB68B2FBF3F27B681A6100BF35
:1014C0001C37BD4680BC70470010024000127A00F5
:1014D00000093D00000000201000002080B483B00F
:1014E00000AF78600B46FB70FB78002B06D0094BF1
:1014F0009A6908497B6813438B6106E0054B9A693A
:101500007B68DB43034913408B6100BF0C37BD464A
:1015100080BC70470010024080B483B000AF786098
:101520000B46FB70FB78002B06D0094BDA690849A3
:101530007B681343CB6106E0054BDA697B68DB43CC
:1015400003491340CB6100BF0C37BD4680BC7047D8
:101550000010024080B485B000AF7860396000238D
:10156000FB817B681B88FB81FB8903F44153FB8172
:101570003B681A883B685B8813439AB23B689B8838
:1015800013439AB23B68DB8813439AB23B681B89CA
:1015900013439AB23B685B8913439AB23B689B89B9
:1015A00013439AB23B68DB8913439AB2FB89134316
:1015B000FB817B68FA891A807B689B8B9BB223F442
:1015C00000639AB27B689A833B681A8A7B681A82A6
:1015D00000BF1437BD4680BC704780B483B000AFF5
:1015E00078600B46FB70FB78002B08D07B681B886B
:1015F0009BB243F040039AB27B681A8007E07B6895
:101600001B889BB223F040039AB27B681A8000BF0C
:101610000C37BD4680BC704780B483B000AF7860A3
:101620000B467B807B687A889A8100BF0C37BD4669
:1016300080BC704780B485B000AF78600B467B807B
:101640000023FB737B681B899AB27B8813409BB293
:10165000002B02D00123FB7301E00023FB73FB7B13
:1016600018461437BD4680BC7047000080B483B074
:1016700000AF03463960FB7197F90730002B0BDA96
:101680003B68DAB20C49FB7903F00F03043B12010B
:10169000D2B20B441A7609E03B68DAB2074997F9EF
:1016A00007301201D2B20B4483F8002300BF0C377D
:1016B000BD4680BC704700BF00ED00E000E100E0E7
:1016C00080B582B000AF78607B68B3F1807F01D3D2
:1016D000012311E07B6823F07F43094A013B5360FB
:1016E0000F214FF0FF30FFF7C1FF054B00229A603A
:1016F000034B07221A60002318460837BD4680BDF9
:1017000010E000E080B500AF00F040FC00F010F801
:1017100000F062F800F0CEF800F02CF900F044FA86
:1017200000F06CFA002000F0E5F800F091FBFCE717
:1017300080B500AF054B1B68054AA2FB03239B093C
:101740001846FFF7BDFF00BF80BD00BF140000209A
:10175000D34D621080B400AF044B1B680133034AC1
:10176000136000BFBD4680BC704700BFA8000020CA
:1017700080B400AF024B1B681846BD4680BC704762
:10178000A800002080B586B000AF786000233B61E0
:10179000FFF7EEFF7861FFF7EBFFF860FA687B690F
:1017A0009A4206D3FA687B69D31A3A6913443B61BB
:1017B00006E0FA687B69D21A3B691344013B3B613E
:1017C000FB687B613A697B689A42E4D300BF00BF43
:1017D0001837BD4680BD000080B586B000AF01213E
:1017E0000820FFF77BFE1823FB754FF42043BB82D4
:1017F0000323BB7507F1140319461A48FFF7E6FAED
:101800001023FB754FF48053BB820323BB7507F194
:10181000140319461348FFF7D9FA01214FF4804009
:10182000FFF77AFE4FF482737B8000233B80002316
:10183000FB8000233B814FF40063BB802023BB81EE
:101840000023FB814FF400737B813B461946064819
:10185000FFF780FE01210448FFF7BFFE00BF1837E5
:10186000BD4680BD000C01400038004080B582B00C
:1018700000AF78600B467B804FF480510C48FFF737
:101880006FFB7B8819467868FFF7C6FE00BF802192
:101890007868FFF7CFFE0346012BF8D04FF4805154
:1018A0000348FFF74FFB00BF0837BD4680BD00BFB0
:1018B000000C014080B500AF40F6FF110C48FFF767
:1018C000D5FF40F609210A48FFF7D0FF40F607315F
:1018D0000748FFF7CBFF40F601410548FFF7C6FF79
:1018E0004FF470610248FFF7C1FF00BF80BD00BF29
:1018F0000038004080B584B000AF0346FB80002371
:10190000FB73FB7B0133FB73FB7B1B0218B2FA8872
:10191000164BA3FB0213D9080B469B000B445B003C
:10192000D31A9BB2DBB21BB203431BB29BB2194664
:101930000F48FFF79BFFFB880C4AA2FB0323DB0841
:10194000FB80FB88002BDCD1FB7B9BB2013B9BB275
:101950001BB243F430631BB29BB219460448FFF735
:1019600085FF00BF1037BD4680BD00BFCDCCCCCCBD
:101970000038004080B586B000AF01214FF48000F0
:10198000FFF7CAFD01210820FFF7A8FD1C23FB7506
:101990000323BB754FF44063BB8207F11403194660
:1019A0000E48FFF713FA00233B810D4B7B604BF68B
:1019B000FF737B810023FB814FF480433B82002334
:1019C000BB813B1D19460748FFF718FB012105485D
:1019D000FFF7D6FB00BF1837BD4680BD000C0140A5
:1019E000801A06000058004080B582B000AF7860D1
:1019F000084611461A460346FB700B46BB70134659
:101A00007B7000BF4FF400317868FFF77EFC03461F
:101A1000002BF7D101217868FFF7D1FB00BF1C49EB
:101A20007868FFF743FC0346002BF8D0FB785B0097
:101A3000DBB2002219467868FFF71BFC00BF15498E
:101A40007868FFF733FC0346002BF8D0BB781946C3
:101A50007868FFF7F2FB00BF0F497868FFF726FCB4
:101A60000346002BF8D07B7819467868FFF7E5FB32
:101A700000BF09497868FFF719FC0346002BF8D02E
:101A800001217868FFF7BAFB00BF0837BD4680BD6B
:101A900001000300820007008400070080B584B0C5
:101AA00000AF78600B46FB701346BB700023FB73DE
:101AB00000BF4FF400317868FFF727FC0346002B86
:101AC000F7D101217868FFF77AFB00BF31497868C8
:101AD000FFF7ECFB0346002BF8D0FB785B00DBB292
:101AE000002219467868FFF7C4FB00BF2A497868CE
:101AF000FFF7DCFB0346002BF8D0BB78194678686B
:101B0000FFF79BFB00BF25497868FFF7CFFB034633
:101B1000002BF8D001217868FFF770FB00BF4FF46D
:101B200000317868FFF7F1FB0346002BF7D1012164
:101B30007868FFF744FB00BF16497868FFF7B6FBEB
:101B40000346002BF8D0FB785B00DBB2012219467C
:101B50007868FFF78EFB00BF11497868FFF7A6FB96
:101B60000346002BF8D000BF0E497868FFF79EFBB4
:101B70000346002BF8D07868FFF76EFB0346FB7333
:101B800001217868FFF73AFBFB7B18461037BD460A
:101B900080BD00BF01000300820007008400070031
:101BA000020003004000030080B500AF09231922A2
:101BB00068211148FFF718FF03231A2268210E48F5
:101BC000FFF712FF08231B2268210B48FFF70CFFC9
:101BD00010231C2268210848FFF706FF00236B2210
:101BE00068210548FFF700FF0123382268210248D9
:101BF000FFF7FAFE00BF80BD0058004080B584B0FA
:101C000000AF01210520FFF769FC4823FB73032384
:101C1000BB730223BB8107F10C0319461148FFF780
:101C2000D5F801210020FFF7A9F902237B600123E9
:101C3000BB7200233B720C237B723B1D1846FFF7DF
:101C40002BF807233B700123FB7000237B700023DC
:101C5000BB703B461846FEF7BDFF00BF1037BD46C0
:101C600080BD00BF00080140B0B584B000AF0220C5
:101C7000FFF784F80346012B56D12D4C39464FF01F
:101C800000022C4B084600F05BF83B4693E8070047
:101C900084E80700264B1B681846FEF7CDFB4FF083
:101CA00000024FF0804300F0BDFA04460D46204B81
:101CB0005B681846FEF7C0FB4FF000024FF0804310
:101CC00000F0B0FA02460B4620462946FEF756FAC7
:101CD00002460B4614461D46154B9B681846FEF7F8
:101CE000ABFB4FF000024FF0804300F09BFA02463E
:101CF0000B4620462946FEF741FA02460B4610469F
:101D0000194600F0F7FA02460B4610461946FEF750
:101D10009BFE0346084A13603A2268210748FFF7F2
:101D2000BDFE0220FFF744F800BF1037BD46B0BD2E
:101D3000AC0000200000B040B80000200058004077
:101D400090B589B000AFF860C7E900233B22682155
:101D50003D48FFF7A3FE0346FB773C2268213A4843
:101D6000FFF79CFE0346BB77FB7F1B021AB2BB7FCB
:101D70001BB21343BB83B7F91C301846FEF74AFB6E
:101D8000D7E90023FEF7DAFC02460B461046194657
:101D9000FEF75AFE03463B613D2268212A48FFF7C1
:101DA0007DFE0346FB773E2268212748FFF776FE3B
:101DB0000346BB77FB7F1B021AB2BB7F1BB21343E8
:101DC000BB83B7F91C301846FEF724FBD7E9002384
:101DD000FEF7B4FC02460B4610461946FEF734FEE9
:101DE00003467B613F2268211748FFF757FE0346F1
:101DF000FB77402268211448FFF750FE0346BB776B
:101E0000FB7F1B021AB2BB7F1BB21343BB83B7F924
:101E10001C301846FEF7FEFAD7E90023FEF78EFCC9
:101E200002460B4610461946FEF70EFE0346BB61FE
:101E3000FB681C4607F1100393E8070084E80700DD
:101E4000F8682437BD4690BD0058004000000000EF
:101E500080B500AF1E4B1B78002B1DD11D4B1B689E
:101E60001846FEF7E9FA18A3D3E90023FEF7AEFD02
:101E70000346002B10D0164B01221A70164B1B88FC
:101E800001339AB2144B1A80134B1B881846FFF784
:101E900031FDFA20FFF776FC0D4B1B78012B10D19A
:101EA0000C4B1B684FF07E511846FEF789FE034627
:101EB000002B00D105E0064B00221A70FA20FFF734
:101EC00061FC00BF80BD00BFB81E85EB51B8EE3F7E
:101ED000BC000020B8000020BE00002080B400AF8D
:101EE00000BFBD4680BC704780B400AFFEE780B441
:101EF00000AFFEE780B400AFFEE780B400AFFEE7BE
:101F000080B400AF00BFBD4680BC704780B400AF56
:101F100000BFBD4680BC704780B400AF00BFBD4667
:101F200080BC704780B500AF154B1B68144A43F066
:101F300001031360124B5A681149124B13404B6056
:101F40000F4B1B680E4A23F0847323F48033136015
:101F50000B4B1B680A4A23F480231360084B5B6811
:101F6000074A23F4FE035360054B4FF41F029A60A7
:101F700000F07EF8044B4FF000629A6000BF80BD15
:101F8000001002400000FFF800ED00E080B485B0D2
:101F900000AF0023FB600023BB6000237B602F4B5E
:101FA0005B6803F00C03FB60FB68082B11D0FB6837
:101FB000082B3AD8FB68002B03D0FB68042B04D015
:101FC00033E0274B274A1A6033E0254B254A1A6035
:101FD0002FE0224B5B6803F47013BB601F4B5B6800
:101FE00003F480337B60BB689B0C0233BB607B686F
:101FF000002B06D1BB681C4A02FB03F3184A13608E
:1020000017E0164B5B6803F40033002B06D0BB6867
:10201000154A02FB03F3124A13600AE0BB68114A37
:1020200002FB03F30E4A136003E00D4B0D4A1A60E6
:1020300000BF0A4B5B681B0903F00F030B4AD35C1C
:10204000DBB2FB60064B1A68FB6822FA03F3044A12
:10205000136000BF1437BD4680BC704700100240BB
:102060001400002000127A0000093D001800002032
:1020700080B500AF00F002F800BF80BD80B483B02F
:1020800000AF00237B6000233B603A4B1B68394A5A
:1020900043F480331360374B1B6803F400333B6019
:1020A0007B6801337B603B68002B03D17B68B3F511
:1020B000A06FF0D12F4B1B6803F40033002B02D02C
:1020C00001233B6001E000233B603B68012B4BD1C7
:1020D000294B1B68284A43F010031360264B1B68EA
:1020E000254A23F003031360234B1B68224A43F065
:1020F000020313601F4B1F4A5B6853601D4B1D4A50
:102100005B6853601B4B5B681A4A43F480635360FF
:10211000184B5B68174A23F47C135360154B5B68BC
:10212000144A43F4E8135360124B1B68114A43F0FE
:102130008073136000BF0F4B1B6803F00073002B0C
:10214000F9D00C4B5B680B4A23F003035360094B37
:102150005B68084A43F00203536000BF054B5B68AD
:1021600003F00C03082BF9D100BF0C37BD4680BC2F
:10217000704700BF00100240002002400D48854615
:10218000FFF7D0FE0C480D490D4A002302E0D45859
:10219000C4500433C4188C42F9D30A4A0A4C0023B1
:1021A00001E013600432A242FBD300F017F8FFF7FE
:1021B000A9FAFEE700500020000000208C0000205B
:1021C000883000088C000020C0000020FEE70000DE
:1021D000014B1868704700BF2800002070B500262A
:1021E0000C4D0D4C641BA410A64209D100F022FF37
:1021F00000260A4D0A4C641BA410A64205D170BDEE
:1022000055F8043B98470136EEE755F8043B9847EC
:102210000136F2E780300008803000088030000886
:10222000843000082DE9F84314461D46804689464F
:1022300000F086F8224606460F462B4620462946E1
:10224000FEF7ECFBC8BB0022002340464946FEF7E0
:10225000B3FBB8B10022002320462946FEF7ACFBB1
:10226000002841D12046294600F05FFE28B3002215
:10227000002320462946FEF7A9FBF0B1FFF7A8FF8F
:10228000222319E03046394600F04FFEC8B94046D7
:10229000494600F04AFEA0B12046294600F045FE1E
:1022A00078B132463B4630463946FEF7B7FB002848
:1022B000E4D0FFF78DFF2123036030463946BDE8A7
:1022C000F8830022002330463946FEF775FB0028CC
:1022D000F3D04046494600F028FE0028EDD02046C5
:1022E000294600F022FEC8E70026014FE5E700BFBF
:1022F0000000F03FF8B506460F4600F037FD3246C5
:1023000004460D463B4630463946FEF787FB90B9FA
:102310000022002330463946FEF758FB58B1FFF73C
:1023200057FF212300220360002310461946FEF7C1
:1023300005FA04460D4620462946F8BD0000000077
:102340002DE9F04F93B0CDE90223DDE9022727F014
:102350000046894656EA0201804611D1031889F4E5
:10236000002252419942824B934180F0B984DDE9C9
:10237000022340464946FDF701FF83468C466FE045
:102380007C4B29F000449C424D46824606DC01D13C
:102390000028ECD19E4201DC0FD172B105F140451D
:1023A00005F5801555EA0A05E1D1DDE90232DB18B1
:1023B00082F4002252419D42D5E7002D39DA6E4B5E
:1023C0009E4252DCA3F154739E4240F39C84331529
:1023D000A3F2FF33142B0FDDC3F1340322FA03F110
:1023E00001FA03F3934240F08E8401F00101C1F140
:1023F0000203009382B15DE0002A59D1C3F11403B6
:1024000046FA03F101FA03F3B34240F0798401F094
:102410000101C1F102030093584B9E4232D1002FBB
:1024200080F26A8442464B4600205449FEF786F902
:10243000A3E700230093002A3CD14E4B9E42EBD1F0
:1024400004F1404303F5801353EA0A0300F0488483
:102450004B4B9C420BDD002FC0F24884DDE902BCEF
:102460005846614613B0BDE8F08F0223E2E7002F23
:102470004FF0000B4FF0000CF2DADDE902B303F18C
:10248000004CEDE7B7F1804F06D142464B4640463F
:102490004946FEF729F870E73A4B9F420AD1002DD2
:1024A00008DB4046494613B0BDE8F04F00F05EBC83
:1024B000002300934046494600F034FD83468C4695
:1024C000BAF1000F28D124B12C4B25F040429A429A
:1024D00022D1002F07DA5A46634600202749FEF72B
:1024E0002DF983468C46002DBADA009B04F1404456
:1024F00004F58014234308D15A4663465846614682
:10250000FDF73AFE02460B4690E7009B012BA7D150
:102510000CF100439C46A3E7EB0F013B0C930C9A94
:10252000009B134304D142464B4640464946E7E7E9
:10253000154B9E4240F3F68003F104739E42104B0C
:1025400009DD9C420CDC002F0CDA002013B0BDE842
:10255000F04F00F0E2BC9C42F5DB084B9C4215DDDD
:10256000002FF2DC002013B0BDE8F04F00F0D0BC2B
:102570000000F0FF0000F07FFFFF3F430000F03F4E
:10258000FFFFEF3F0000E03F0000E0416146002216
:1025900058465F4BFDF7F0FD55A3D3E900230446F1
:1025A0000D46FDF7A1FF54A3D3E9002306460F46CD
:1025B00020462946FDF798FF002282468B4620469A
:1025C0002946544BFDF790FF02460B464CA1D1E93A
:1025D0000001FDF7D1FD22462B46FDF785FF02469F
:1025E0000B4600204C49FDF7C7FD22462B4680468E
:1025F000894620462946FDF777FF02460B464046AE
:102600004946FDF771FF40A3D3E90023FDF76CFFB6
:1026100002460B4650465946FDF7AEFD4FF0000A04
:1026200002460B4604460D4630463946FDF7A6FDE8
:1026300032463B4650468B46FDF79EFD02460B4612
:1026400020462946FDF798FDDDE90267009B0C9ABC
:10265000013B13434FF000064FF000020CBF2F4B1D
:102660002B4B04460D46DDE90201CDE9002332463D
:102670003B46FDF781FD52465B46FDF735FFDDE940
:1026800002238046894620462946FDF72DFF024653
:102690000B4640464946FDF771FD32463B468046B3
:1026A000894650465946FDF71FFF04460D460B4626
:1026B000024649464046CDE90245FDF75FFD184B0D
:1026C000824699420F460E4640F3E58201F13F43B0
:1026D00003F5E003034300F0DF81DDE900010022A0
:1026E0000023FEF773F9003818BF01202EE700BF62
:1026F000000000604715F73F44DF5DF80BAE543E25
:10270000555555555555D53FFE822B654715F73F15
:102710000000F03F0000D03F0000E03F0000F0BFAD
:10272000FFFF8F40D24B00222B4043B958466146F1
:10273000D04BFDF7D9FE6FF0340283460C462315CB
:10274000A3F2FF3313440B93CB4BC4F3130444F0B5
:102750007F559C4245F4401508DDC84B9C4240F330
:1027600099810B9BA5F5801501330B930026F3008F
:102770000D93C34B584603EBC603D3E900342946F7
:102780001A46CDE908342346FDF7F6FCDA462B4617
:102790005246CDE90E01DDE90801FDF7EFFC0246E6
:1027A0000B460020B749FDF7C9FF02460B46CDE9AD
:1027B0001001DDE90E01FDF797FECDE90601DDE927
:1027C0000634CDE9043400230022AB466D1045F0F9
:1027D0000055049305F50025DDE9048905EB8643E2
:1027E0004046494614461D46FDF77EFE02460B460E
:1027F000DDE90E01FDF7C0FCDDE9082306460F46C2
:1028000020462946FDF7B8FC02460B46504659467D
:10281000FDF7B2FC42464B46FDF766FE02460B460C
:1028200030463946FDF7A8FCDDE91023FDF75CFED4
:10283000DDE90623CDE9080110461946FDF754FEEF
:1028400079A3D3E9002304460D46FDF74DFE78A396
:10285000D3E90023FDF792FC22462B46FDF744FE08
:1028600075A3D3E90023FDF789FC22462B46FDF72B
:102870003BFE73A3D3E90023FDF780FC22462B46E1
:10288000FDF732FE70A3D3E90023FDF777FC224663
:102890002B46FDF729FE6EA3D3E90023FDF76EFC5E
:1028A000224606460F462B4620462946FDF71CFECB
:1028B00002460B4630463946FDF716FE04460D46E5
:1028C000DDE9060142464B46FDF758FCDDE90823E9
:1028D000FDF70AFE22462B46FDF750FC424606460F
:1028E0000F464B4640464946FDF7FEFD0022664B2B
:1028F00082468B46FDF742FC32463B46FDF73EFCE6
:1029000000240D4622460B4640464946FDF7ECFDA5
:10291000002280468946204629465B4BFDF72CFC69
:1029200052465B46FDF728FC02460B4630463946C8
:10293000FDF722FCDDE90623FDF7D6FD224606461B
:102940000F46DDE908012B46FDF7CEFD02460B469A
:1029500030463946FDF712FC002406460F46024673
:102960000B4640464946FDF709FC3BA3D3E900234B
:1029700020460D46FDF7B8FD42464B46CDE906011F
:1029800020462946FDF7F8FB02460B4630463946FD
:10299000FDF7F2FB32A3D3E90023FDF7A5FD32A337
:1029A000D3E9002306460F4620462946FDF79CFD45
:1029B00002460B4630463946FDF7E0FB0D9A334B95
:1029C0004FF0000A1344D3E90023FDF7D7FB8046FC
:1029D0000B988946FDF71EFD04460D460D9A2C4BBB
:1029E0001344D3E900674246DDE906014B46FDF793
:1029F000C5FB32463B46FDF7C1FB22462B46FDF7A1
:102A0000BDFB22462B4650468B46FDF7B5FB3246B2
:102A10003B46FDF7B1FBDDE90623FDF7ADFB0246C2
:102A20000B46404649460DE6EF4E454A287ECA3FD2
:102A300065DBC9934A86CD3F01411DA96074D13F32
:102A40004D268F515555D53FFFAB6FDBB66DDB3F44
:102A5000033333333333E33F000000E009C7EE3F75
:102A6000FD033ADC09C7EE3FF5015B14E02F3EBEE3
:102A70000000F07F000040438E98030079B60B0001
:102A8000503000080000F03F00000840703000089F
:102A90006030000801266AE69DA3D3E90023404682
:102AA0004946FDF76BFB2246CDE904012B46504613
:102AB0003946FDF761FB02460B46DDE90401FDF7EF
:102AC000A3FF00287FF409AEA34A26F000439342F7
:102AD00040F301814FF4801A00201B15A3F2FE334E
:102AE0004AFA03F33344C3F30A529C4FA2F2FF3273
:102AF0001741C3F3130A23EA0701C2F114024AF48F
:102B0000801A0B464AFA02FA002E0246294620464F
:102B1000B8BFCAF1000AFDF72FFBCDE90201DDE9DC
:102B20000201002442464B46FDF728FB7AA3D3E975
:102B3000002320460D46FDF7D7FCDDE902230646BB
:102B40000F4620462946FDF717FB02460B46404636
:102B50004946FDF711FB72A3D3E90023FDF7C4FC3E
:102B600071A3D3E900238046894620462946FDF714
:102B7000BBFC02460B4640464946FDF7FFFA0446B9
:102B80000D4602460B4630463946FDF7F7FA324607
:102B90003B4680468946FDF7EFFA02460B46204643
:102BA0002946FDF7E9FA424606460F464B4640469F
:102BB0004946FDF799FC5EA3D3E9002304460D4680
:102BC000FDF792FC5CA3D3E90023FDF7D5FA22467A
:102BD0002B46FDF789FC5AA3D3E90023FDF7CEFA73
:102BE00022462B46FDF780FC57A3D3E90023FDF7CF
:102BF000C3FA22462B46FDF777FC55A3D3E9002301
:102C0000FDF7BCFA22462B46FDF76EFC02460B464A
:102C100040464946FDF7B0FA04460D4602460B46CB
:102C200040464946FDF760FC0022CDE902014FF025
:102C3000804320462946FDF79FFA02460B46DDE910
:102C40000201FDF77BFD324604460D463B464046F9
:102C50004946FDF749FC32463B46FDF78FFA0246EE
:102C60000B4620462946FDF787FA42464B46FDF7BC
:102C700083FA02460B4600203949FDF77DFA01EB45
:102C80000A54B4F5801F29DA524600F055F9DDE9FF
:102C90000023FFF7FEBB334B21F000479F427FF735
:102CA00013AF314B0B44034309D0DDE9000100228F
:102CB0000023FDF78BFE003818BF012053E42246A5
:102CC0002B46FDF759FA42464B46FDF793FE002886
:102CD0003FF4FAAEE9E74FF0000A20E72146D6E7D5
:102CE0004FF0000BDFF878C0FFF7BABB4FF0000BD6
:102CF0004FF0000CFFF7B4BB40464946FFF73DBB21
:102D00000092FFF789BB0023FFF773BBAFF300808E
:102D1000FE822B654715973C00000000432EE63FDE
:102D2000EF39FAFE422EE63F396CA80C615C20BEFA
:102D3000D0A4BE726937663EF16BD2C541BDBB3EC1
:102D40002CDE25AF6A56113F93BDBE166CC1663F9F
:102D50003E5555555555C53F0000E03FFFFF0F005C
:102D60000000F03FFFCB904000346F3FDFF858C1C8
:102D70002DE9F0413CEA010C06460D460C460A4698
:102D8000074603460FD102460B46FDF7ADFB024650
:102D90000B4630462946FDF7F1F906460D4630460A
:102DA0002946BDE8F08100290EDC21F0004C5CEAE8
:102DB0000707F4D041B102460B46FDF7DDF90246A4
:102DC0000B46FDF7BBFCE8E7211575D0CC074FF0AB
:102DD0000004C2F31302A1F2FF3742F480125EBF77
:102DE000D90F5B0001EB4202D90F01EB420216251D
:102DF00020464FF400117F105B0046189642DEBF5C
:102E0000921B701864185200013D02EBD3724FEA16
:102E100051014FEA4303F0D129464FF0200E4FF005
:102E20000046824206EB050C02DC13D19C4511D80A
:102E3000BCF1000F0CEB060543DA002D41DB00F17D
:102E40000108121A40469C4588BF02F1FF32A3EBED
:102E50000C0331444FEAD37CBEF1010E0CEB42026D
:102E60004FEA43034FEA5606DBD1134306D0481C12
:102E70000BBF71460131013421F001016310490893
:102E800003F17F53E20703F5001348BF41F000410F
:102E90000E4603EB075582E7DA0A15385B05002A70
:102EA000FAD0D5020AD5C1F1200423FA04F44D1E4C
:102EB0008B402243411B89E70846F0E7520001316D
:102EC000EFE78046BDE700BF0000F07F70B5044625
:102ED0000D461646FFF77CF929460660204670BD70
:102EE00037B515461C4680B1104603F10041CDE9C7
:102EF0000001DDE9002328462146FDF7F5FA2222EC
:102F000003B0BDE83040FFF7E1BF10461946EEE7D9
:102F100000224FF08053FFF7E3BF00224FF0E04361
:102F2000FFF7DEBF21F00041704741F0004000F59F
:102F30008010C00F70470000F8B5C1F30A56044670
:102F40000D4617460B4696B921F00043034339D08E
:102F5000334B0022FDF7C8FA324B04469F420D4620
:102F60000FDA2BA3D3E90023FDF7BEFA06E040F207
:102F7000FF7296420AD10246FDF700F904460D465B
:102F800020E00B46C1F30A51A1F1360640F2FE7271
:102F9000B91991420EDD05F0004444F0FC4141F4C2
:102FA0005F1141F41051204841F03C011AA3D3E9CC
:102FB0000023D9E7002908DD23F0FF4323F4E003D1
:102FC00043EA015520462946F8BD11F1350F12DAC2
:102FD0004CF250339F424FEAD5734FEAC374DCDCA6
:102FE0000BA3D3E9002344F0D27141F4B7310F4869
:102FF00041F01F01B8E723F0FF43363123F4E0032B
:1030000043EA0155204629460022094BACE700BFA0
:1030100059F3F8C21F6EA5019C7500883CE4377E09
:1030200000005043B03CFFFF9C75008859F3F8C284
:103030000000903CF8B500BFF8BC08BC9E46704745
:0C304000F8B500BFF8BC08BC9E46704705
:10305000000000000000F03F000000000000F83F0A
:1030600000000000000000000000004003B8E23F44
:10307000000000000000000006D0CF43EBFD4C3EF6
:0430800055010008EE
:04308400310100080E
:103088000000000001020304010203040607080906
:103098000204060800A24A04000000000000000024
:1030A80001020304060708092C00002000000000A4
:1030B8000000000000000000000000000000000008
:1030C80000000000000000000000000000000000F8
:1030D80000000000000000000000000000000000E8
:1030E80000000000000000000000000000000000D8
:1030F80000000000000000000000000000000000C8
:0C310800000000000000000000000000BB
:040000050800217D51
:00000001FF
